:100000000C9472000C9484000C9484000C94840072
:100010000C9484000C9484000C9484000C94840050
:100020000C9484000C9484000C9484000C94B30110
:100030000C9484000C94F1010C9484000C948400C2
:100040000C9484000C9484000C9484000C94840020
:100050000C948400BF00D800F1000A0122012201A3
:100060002201220122012201220122012201220178
:100070002201220122012201220122012201220168
:100080002201220122012201220122012201220158
:1000900022012201BF00D800F1000A012F0148010E
:1000A00061017A0192019201920192019201920101
:1000B00092019201920192019201920192019201A8
:1000C0009201920192019201920192019201920198
:1000D0009201920192019201920192012F01480135
:1000E00061017A0111241FBECFE5D4E0DEBFCDBF90
:1000F00022E0A0E6B0E001C01D92AB36B207E1F706
:100100000E9470020C941B030C9400000E943502A4
:100110000E949B000E9498010E94A6000E949302E8
:100120007894089540E050E060E070E083E490E06F
:100130000E942301089541E050E060E070E083E414
:1001400090E00E94B3000E949200089580E687B973
:1001500086B1826C86B9089586B1806486B9349B75
:10016000FECF85B1089590E0FC01E154F109E4323D
:10017000F10508F067C0E65DFF4F0C9406034130BF
:1001800059F42AB381E090E002C0880F991F6A9564
:10019000E2F7822B8ABB08952AB381E090E002C087
:1001A000880F991F6A95E2F7809582238ABB08958C
:1001B000413059F427B381E090E002C0880F991FC5
:1001C0006A95E2F7822B87BB089527B381E090E020
:1001D00002C0880F991F6A95E2F78095822387BB3A
:1001E0000895413059F424B381E090E002C0880FB3
:1001F000991F6A95E2F7822B84BB089524B381E0AE
:1002000090E002C0880F991F6A95E2F780958223DB
:1002100084BB0895413059F421B381E090E002C0DD
:10022000880F991F6A95E2F7822B81BB089521B34D
:1002300081E090E002C0880F991F6A95E2F78095EF
:10024000822381BB089590E0FC01E154F109E4327E
:10025000F10508F067C0E25BFF4F0C9406034130E4
:1002600059F42BB381E090E002C0880F991F6A9582
:10027000E2F7822B8BBB08952BB381E090E002C0A4
:10028000880F991F6A95E2F7809582238BBB0895AA
:10029000413059F428B381E090E002C0880F991FE3
:1002A0006A95E2F7822B88BB089528B381E090E03D
:1002B00002C0880F991F6A95E2F78095822388BB58
:1002C0000895413059F425B381E090E002C0880FD1
:1002D000991F6A95E2F7822B85BB089525B381E0CB
:1002E00090E002C0880F991F6A95E2F780958223FB
:1002F00085BB0895413059F422B381E090E002C0FB
:10030000880F991F6A95E2F7822B82BB089522B36A
:1003100081E090E002C0880F991F6A95E2F780950E
:10032000822382BB08951DBC1CBC109260000895FE
:100330008EB581608EBD8EB582608EBD8EB58B7F91
:100340008EBD0E9493018FB58E7F8FBD8FB58D7F3F
:100350008FBD8EB5877F8EBD8EB58F7E8EBD89B7E2
:10036000846089BF08951F920F920FB60F921124D7
:100370002F933F934F935F938F939F93EF93FF93AD
:10038000F8948CB14091610050916200209163001B
:100390003091640042175307B0F48032A1F02091ED
:1003A000610030916200E0916500F0916600E20F1B
:1003B000F31F808380916100909162000196909379
:1003C0006200809361007894FF91EF919F918F91EB
:1003D0005F914F913F912F910F900FBE0F901F9003
:1003E00018951F920F920FB60F9211242F933F93DF
:1003F0008F939F93EF93FF93F89480916700909170
:1004000068000196909368008093670020916700D0
:10041000309168008091690090916A00281739072F
:1004200060F48091670090916800E0916B00F0911A
:100430006C00E80FF91F80818CB97894FF91EF91DF
:100440009F918F913F912F910F900FBE0F901F9012
:100450001895FC01808180BD818189B982818BB929
:1004600083818AB9848180BD0895CF93DF9300D0C2
:1004700000D01F92CDB7DEB783E38A8319821B8237
:1004800088ED8C8386E88D83CE0101960E94290237
:100490000F900F900F900F900F90DF91CF910895D4
:1004A00090936C0080936B0070936A006093690076
:1004B00010926800109267005D9BFECFFC01808166
:1004C0008CB90895409167005091680020916900AF
:1004D00030916A0081E04217530708F480E00895E4
:1004E0000E9486000E949602FDCF4CB55DB520911A
:1004F0006A0230E0AFEFBFEF0E940C03DC01CB01DA
:10050000840F951FA11DB11D880F991FAA1FBB1F26
:10051000880F991FAA1FBB1FBC01CD01660F771F53
:10052000881F991F08951092690208951F93CF9311
:10053000DF9380916902813009F45EC020F082303F
:1005400009F45DC05FC0C0917400D0E00E94AC00AF
:10055000CB5FDD4F8883C0917400D0E00E947502AC
:10056000FE01EE0FFF1FEE0FFF1FEB58FF4F6083E2
:10057000718382839383809174008F5F8093740072
:100580009091740081E0943608F480E080936902D1
:1005900039C0ADE6B0E080E48C93E12FF0E0CF010C
:1005A0008B5F9D4FEC01888111968C931197EE0F14
:1005B000FF1FEE0FFF1FEB58FF4F808191812281BB
:1005C000338112963C93129713962C93139714969B
:1005D0009C93149715968C9315978BE316968C9392
:1005E000169767E070E0CD010E9450020E946202FF
:1005F0008823E1F31F5F01C010E0143650F282E05F
:1006000080936902DF91CF911F910895EE0FFF1F34
:100610000590F491E02D0994A29FB001B39FC00111
:10062000A39F700D811D1124911DB29F700D811D1E
:0A0630001124911D0895F894FFCFE6
:00000001FF
